{
  "contractName": "EBookDownloadService",
  "abi": [
    {
      "constant": true,
      "inputs": [],
      "name": "getFromService",
      "outputs": [
        {
          "name": "",
          "type": "string"
        }
      ],
      "payable": false,
      "stateMutability": "pure",
      "type": "function"
    },
    {
      "constant": true,
      "inputs": [],
      "name": "getServiceName",
      "outputs": [
        {
          "name": "",
          "type": "string"
        }
      ],
      "payable": false,
      "stateMutability": "pure",
      "type": "function"
    }
  ],
  "bytecode": "0x608060405234801561001057600080fd5b50610264806100206000396000f30060806040526004361061004c576000357c0100000000000000000000000000000000000000000000000000000000900463ffffffff16806384dc32db1461005157806398b80105146100e1575b600080fd5b34801561005d57600080fd5b50610066610171565b6040518080602001828103825283818151815260200191508051906020019080838360005b838110156100a657808201518184015260208101905061008b565b50505050905090810190601f1680156100d35780820380516001836020036101000a031916815260200191505b509250505060405180910390f35b3480156100ed57600080fd5b506100f66101ae565b6040518080602001828103825283818151815260200191508051906020019080838360005b8381101561013657808201518184015260208101905061011b565b50505050905090810190601f1680156101635780820380516001836020036101000a031916815260200191505b509250505060405180910390f35b60606040805190810160405280601481526020017f45426f6f6b446f776e6c6f616453657276696365000000000000000000000000815250905090565b6060608060405190810160405280604581526020017f7777772e65626f6f6b732e636f6d2f666966747953686164657342617272656c81526020017f5363726170696e675f7768617443687269737469616e477265797348616d737481526020017f65725361770000000000000000000000000000000000000000000000000000008152509050905600a165627a7a7230582043a62ed839b58b81ffcd060cab96622a7212201dc5db2898d4af89f689ce24270029",
  "source": "pragma solidity 0.4.24;\n\n\nimport \"./Service.sol\";\n\n\n/**\n * Simple example service that returns the URL to a book download\n */\ncontract EBookDownloadService is Service {\n\n\n    function getFromService() external pure returns (string) {\n        return \"www.ebooks.com/fiftyShadesBarrelScraping_whatChristianGreysHamsterSaw\";\n    }\n\n    function getServiceName() external pure returns (string) {\n        return \"EBookDownloadService\";\n    }\n}\n",
  "sourcePath": "/home/josh/Ethereum-Service-Provider/contracts/EBookDownloadService.sol",
  "compiler": {
    "name": "solc",
    "version": "0.4.24+commit.e67f0147.Emscripten.clang"
  },
  "schemaVersion": "2.0.1",
  "updatedAt": "2018-09-24T11:34:14.967Z"
}