{
  "contractName": "FilmRentalService",
  "abi": [
    {
      "constant": true,
      "inputs": [],
      "name": "getFromService",
      "outputs": [
        {
          "name": "",
          "type": "string"
        }
      ],
      "payable": false,
      "stateMutability": "pure",
      "type": "function"
    }
  ],
  "bytecode": "0x608060405234801561001057600080fd5b5061013f806100206000396000f300608060405260043610610041576000357c0100000000000000000000000000000000000000000000000000000000900463ffffffff16806398b8010514610046575b600080fd5b34801561005257600080fd5b5061005b6100d6565b6040518080602001828103825283818151815260200191508051906020019080838360005b8381101561009b578082015181840152602081019050610080565b50505050905090810190601f1680156100c85780820380516001836020036101000a031916815260200191505b509250505060405180910390f35b60606040805190810160405280601781526020017f7777772e6765744d7946696c6d2e636f6d2f6c6f67616e0000000000000000008152509050905600a165627a7a723058208dc4191dbafd2c54f2067740b63bc8968cea071de55cde536e1c6a8f1288d4b00029",
  "source": "pragma solidity 0.4.24;\n\n\nimport \"./Service.sol\";\n\n\n/**\n * Simple example service that returns the URL to a film\n */\ncontract FilmRentalService is Service {\n\n\n    function getFromService() external pure returns (string) {\n        return \"www.getMyFilm.com/logan\";\n    }\n}\n",
  "sourcePath": "/home/josh/serviceProvider/contracts/FilmRentalService.sol",
  "compiler": {
    "name": "solc",
    "version": "0.4.24+commit.e67f0147.Emscripten.clang"
  },
  "schemaVersion": "2.0.1",
  "updatedAt": "2018-08-31T09:38:05.597Z"
}