{
  "contractName": "ServiceProvider",
  "abi": [
    {
      "constant": true,
      "inputs": [],
      "name": "currentDay",
      "outputs": [
        {
          "name": "",
          "type": "uint8"
        }
      ],
      "payable": false,
      "stateMutability": "view",
      "type": "function"
    },
    {
      "constant": true,
      "inputs": [],
      "name": "notsubscribed",
      "outputs": [
        {
          "name": "",
          "type": "string"
        }
      ],
      "payable": false,
      "stateMutability": "view",
      "type": "function"
    },
    {
      "constant": true,
      "inputs": [],
      "name": "owner",
      "outputs": [
        {
          "name": "",
          "type": "address"
        }
      ],
      "payable": false,
      "stateMutability": "view",
      "type": "function"
    },
    {
      "inputs": [
        {
          "name": "_filmService",
          "type": "address"
        }
      ],
      "payable": false,
      "stateMutability": "nonpayable",
      "type": "constructor"
    },
    {
      "constant": true,
      "inputs": [
        {
          "name": "username",
          "type": "string"
        }
      ],
      "name": "getSubscriptionStatus",
      "outputs": [
        {
          "name": "",
          "type": "uint8"
        }
      ],
      "payable": false,
      "stateMutability": "view",
      "type": "function"
    },
    {
      "constant": false,
      "inputs": [
        {
          "name": "username",
          "type": "string"
        }
      ],
      "name": "subscribeToTrial",
      "outputs": [
        {
          "name": "",
          "type": "bool"
        }
      ],
      "payable": false,
      "stateMutability": "nonpayable",
      "type": "function"
    },
    {
      "constant": true,
      "inputs": [
        {
          "name": "username",
          "type": "string"
        }
      ],
      "name": "callService",
      "outputs": [
        {
          "name": "",
          "type": "string"
        }
      ],
      "payable": false,
      "stateMutability": "view",
      "type": "function"
    },
    {
      "constant": false,
      "inputs": [
        {
          "name": "_day",
          "type": "uint8"
        }
      ],
      "name": "setDay",
      "outputs": [],
      "payable": false,
      "stateMutability": "nonpayable",
      "type": "function"
    }
  ],
  "bytecode": "0x608060405234801561001057600080fd5b506040516020806108f883398101806040528101908080519060200190929190505050336000806101000a81548173ffffffffffffffffffffffffffffffffffffffff021916908373ffffffffffffffffffffffffffffffffffffffff1602179055506001600360006101000a81548160ff021916908360ff16021790555080600160006101000a81548173ffffffffffffffffffffffffffffffffffffffff021916908373ffffffffffffffffffffffffffffffffffffffff16021790555050610818806100e06000396000f300608060405260043610610083576000357c0100000000000000000000000000000000000000000000000000000000900463ffffffff1680630f620d38146100885780632f00bfcb146100db5780635c9302c91461010b5780638b2432021461013c5780638da5cb5b146101cc5780639e96700514610223578063a3d3d624146102d7575b600080fd5b34801561009457600080fd5b506100c160048036038101908080359060200190820180359060200191909192939192939050505061035a565b604051808215151515815260200191505060405180910390f35b3480156100e757600080fd5b50610109600480360381019080803560ff16906020019092919050505061045f565b005b34801561011757600080fd5b506101206104da565b604051808260ff1660ff16815260200191505060405180910390f35b34801561014857600080fd5b506101516104ed565b6040518080602001828103825283818151815260200191508051906020019080838360005b83811015610191578082015181840152602081019050610176565b50505050905090810190601f1680156101be5780820380516001836020036101000a031916815260200191505b509250505060405180910390f35b3480156101d857600080fd5b506101e1610526565b604051808273ffffffffffffffffffffffffffffffffffffffff1673ffffffffffffffffffffffffffffffffffffffff16815260200191505060405180910390f35b34801561022f57600080fd5b5061025c60048036038101908080359060200190820180359060200191909192939192939050505061054b565b6040518080602001828103825283818151815260200191508051906020019080838360005b8381101561029c578082015181840152602081019050610281565b50505050905090810190601f1680156102c95780820380516001836020036101000a031916815260200191505b509250505060405180910390f35b3480156102e357600080fd5b5061033e600480360381019080803590602001908201803590602001908080601f0160208091040260200160405190810160405280939291908181526020018383808284378201915050505050509192919290505050610704565b604051808260ff1660ff16815260200191505060405180910390f35b60008060028081111561036957fe5b60ff166103a785858080601f016020809104026020016040519081016040528093929190818152602001838380828437820191505050505050610704565b60ff161415156103ba5760009150610458565b6001600360009054906101000a900460ff1601905060408051908101604052808260ff168152602001600015158152506002858560405180838380828437820191505092505050908152602001604051809103902060008201518160000160006101000a81548160ff021916908360ff16021790555060208201518160000160016101000a81548160ff021916908315150217905550905050600191505b5092915050565b336000809054906101000a900473ffffffffffffffffffffffffffffffffffffffff1673ffffffffffffffffffffffffffffffffffffffff168173ffffffffffffffffffffffffffffffffffffffff161415156104bb57600080fd5b81600360006101000a81548160ff021916908360ff1602179055505050565b600360009054906101000a900460ff1681565b6040805190810160405280601681526020017f596f7520617265206e6f7420737562736372696265640000000000000000000081525081565b6000809054906101000a900473ffffffffffffffffffffffffffffffffffffffff1681565b6060806000600281111561055b57fe5b60ff1661059985858080601f016020809104026020016040519081016040528093929190818152602001838380828437820191505050505050610704565b60ff161415156105e0576040805190810160405280601681526020017f596f7520617265206e6f7420737562736372696265640000000000000000000081525091506106fd565b600160009054906101000a900473ffffffffffffffffffffffffffffffffffffffff1673ffffffffffffffffffffffffffffffffffffffff166398b801056040518163ffffffff167c0100000000000000000000000000000000000000000000000000000000028152600401600060405180830381600087803b15801561066657600080fd5b505af115801561067a573d6000803e3d6000fd5b505050506040513d6000823e3d601f19601f8201168201806040525060208110156106a457600080fd5b8101908080516401000000008111156106bc57600080fd5b828101905060208101848111156106d257600080fd5b81518560018202830111640100000000821117156106ef57600080fd5b505092919050505090508091505b5092915050565b6000806002836040518082805190602001908083835b60208310151561073f578051825260208201915060208101905060208303925061071a565b6001836020036101000a038019825116818451168082178552505050505050905001915050908152602001604051809103902060000160009054906101000a900460ff16905060008160ff1614156107a45760028081111561079d57fe5b91506107e6565b8060ff16600360009054906101000a900460ff1660ff161015156107d657600160028111156107cf57fe5b91506107e6565b600060028111156107e357fe5b91505b509190505600a165627a7a72305820539e893ec32a73273a32e68d50737652325a7cc1a19d7163d988db4fdf792a940029",
  "source": "pragma solidity 0.4.24;\n\nimport \"./FilmRentalService.sol\";\n\n/**\n * Example contract that takes a service in its constructor, a film rental service in this case,\n * and wraps it in functionality that enables users to subscribe to a free trial for\n * a day.\n */\ncontract ServiceProvider {\n\n    address public owner;\n\n    FilmRentalService private filmService;\n\n    enum SubscriptionStatus {ACTIVE,EXPIRED,NOT_SUBSCRIBED}\n\n    struct UserProfile {\n        uint8 expirationDay;\n        bool inUse;\n    }\n\n    mapping(string => UserProfile) private userProfiles;\n\n    uint8 public currentDay;\n\n    //Simple error message\n    string constant public notsubscribed = \"You are not subscribed\";\n\n    constructor(address _filmService) public  {\n        owner = msg.sender;\n        currentDay = 1;\n        filmService = FilmRentalService(_filmService);\n    }\n\n    /**\n     * Returns whether the user's subscription is active (0), expired (1) or\n     * non-existent (2)\n     */\n    function getSubscriptionStatus(string username) view public returns(uint8) {\n        uint8 expirationDay = userProfiles[username].expirationDay;\n        if(expirationDay == 0){\n            return uint8(SubscriptionStatus.NOT_SUBSCRIBED);\n        }\n        else if(currentDay >= expirationDay) {\n            return uint8(SubscriptionStatus.EXPIRED);\n\t      }\n        else {\n            return uint8(SubscriptionStatus.ACTIVE);\n        }\n    }\n\n    /**\n     * Subscribes the given user name, which means that they will be able to access\n     * the service for a day.\n     */\n    function subscribeToTrial(string username) external returns (bool) {\n        if(getSubscriptionStatus(username) != uint8(SubscriptionStatus.NOT_SUBSCRIBED)){\n           return false;\n        }\n\n        uint8 expirationDay = currentDay + 1;\n        userProfiles[username] = UserProfile(expirationDay, false);\n        return true;\n    }\n\n    /**\n     * Returns a URL from the service (a film in this case) that the user is subscribed to\n     */\n    function callService(string username) view external returns(string) {\n        if(getSubscriptionStatus(username) != uint8(SubscriptionStatus.ACTIVE)) {\n            return notsubscribed;\n        }\n        string memory result = filmService.getFromService();\n        return result;\n    }\n\n    /**\n     * Used to tell the contract that the day has changed.  This affects user's subscriptions.\n     * This can only be called by the owner of the contract and would need to be\n     * called externally by the owner's systems at the end of each calendar day because,\n     * at the time of writing, there is no reliable way to get the system time from\n     * within a contract unless you want the block creation time.\n     */\n    function setDay(uint8 _day) external isOwner(msg.sender) {\n        currentDay = _day;\n    }\n\n    modifier isOwner(address a) {\n        require(a == owner);\n        _;\n    }\n\n}\n",
  "sourcePath": "/home/josh/serviceProvider/contracts/ServiceProvider.sol",
  "compiler": {
    "name": "solc",
    "version": "0.4.24+commit.e67f0147.Emscripten.clang"
  },
  "schemaVersion": "2.0.1",
  "updatedAt": "2018-08-01T12:52:15.667Z"
}