{
  "contractName": "ServiceProvider",
  "abi": [
    {
      "constant": true,
      "inputs": [],
      "name": "currentDay",
      "outputs": [
        {
          "name": "",
          "type": "uint8"
        }
      ],
      "payable": false,
      "stateMutability": "view",
      "type": "function"
    },
    {
      "constant": true,
      "inputs": [],
      "name": "notsubscribed",
      "outputs": [
        {
          "name": "",
          "type": "string"
        }
      ],
      "payable": false,
      "stateMutability": "view",
      "type": "function"
    },
    {
      "constant": true,
      "inputs": [],
      "name": "owner",
      "outputs": [
        {
          "name": "",
          "type": "address"
        }
      ],
      "payable": false,
      "stateMutability": "view",
      "type": "function"
    },
    {
      "constant": true,
      "inputs": [],
      "name": "feePerDayInWei",
      "outputs": [
        {
          "name": "",
          "type": "uint256"
        }
      ],
      "payable": false,
      "stateMutability": "view",
      "type": "function"
    },
    {
      "inputs": [
        {
          "name": "_services",
          "type": "address[]"
        }
      ],
      "payable": false,
      "stateMutability": "nonpayable",
      "type": "constructor"
    },
    {
      "payable": true,
      "stateMutability": "payable",
      "type": "fallback"
    },
    {
      "constant": true,
      "inputs": [
        {
          "name": "serviceName",
          "type": "string"
        }
      ],
      "name": "getSubscriptionStatus",
      "outputs": [
        {
          "name": "",
          "type": "uint8"
        }
      ],
      "payable": false,
      "stateMutability": "view",
      "type": "function"
    },
    {
      "constant": false,
      "inputs": [
        {
          "name": "serviceName",
          "type": "string"
        }
      ],
      "name": "subscribeToTrial",
      "outputs": [
        {
          "name": "",
          "type": "bool"
        }
      ],
      "payable": false,
      "stateMutability": "nonpayable",
      "type": "function"
    },
    {
      "constant": false,
      "inputs": [
        {
          "name": "serviceName",
          "type": "string"
        }
      ],
      "name": "subscribeFor",
      "outputs": [
        {
          "name": "",
          "type": "uint256"
        }
      ],
      "payable": true,
      "stateMutability": "payable",
      "type": "function"
    },
    {
      "constant": true,
      "inputs": [
        {
          "name": "serviceName",
          "type": "string"
        }
      ],
      "name": "callService",
      "outputs": [
        {
          "name": "",
          "type": "string"
        }
      ],
      "payable": false,
      "stateMutability": "view",
      "type": "function"
    },
    {
      "constant": false,
      "inputs": [
        {
          "name": "_day",
          "type": "uint8"
        }
      ],
      "name": "setDay",
      "outputs": [],
      "payable": false,
      "stateMutability": "nonpayable",
      "type": "function"
    },
    {
      "constant": true,
      "inputs": [],
      "name": "getDay",
      "outputs": [
        {
          "name": "",
          "type": "uint8"
        }
      ],
      "payable": false,
      "stateMutability": "view",
      "type": "function"
    }
  ],
  "bytecode": "0x608060405234801561001057600080fd5b50604051610cee380380610cee833981018060405281019080805182019291905050506000336000806101000a81548173ffffffffffffffffffffffffffffffffffffffff021916908373ffffffffffffffffffffffffffffffffffffffff1602179055506001600360006101000a81548160ff021916908360ff1602179055508160008151811015156100a057fe5b9060200190602002015190508060018273ffffffffffffffffffffffffffffffffffffffff166384dc32db6040518163ffffffff167c0100000000000000000000000000000000000000000000000000000000028152600401600060405180830381600087803b15801561011357600080fd5b505af1158015610127573d6000803e3d6000fd5b505050506040513d6000823e3d601f19601f82011682018060405250602081101561015157600080fd5b81019080805164010000000081111561016957600080fd5b8281019050602081018481111561017f57600080fd5b815185600182028301116401000000008211171561019c57600080fd5b50509291905050506040518082805190602001908083835b6020831015156101d957805182526020820191506020810190506020830392506101b4565b6001836020036101000a038019825116818451168082178552505050505050905001915050908152602001604051809103902060006101000a81548173ffffffffffffffffffffffffffffffffffffffff021916908373ffffffffffffffffffffffffffffffffffffffff1602179055505050610a938061025b6000396000f3006080604052600436106100a4576000357c0100000000000000000000000000000000000000000000000000000000900463ffffffff1680630f620d38146100a657806314ba5c09146100f95780632f00bfcb1461012a5780635c9302c91461015a5780638b2432021461018b5780638da5cb5b1461021b5780639a468d60146102725780639e967005146102b4578063a3d3d62414610368578063f60ffd55146103eb575b005b3480156100b257600080fd5b506100df600480360381019080803590602001908201803590602001919091929391929390505050610416565b604051808215151515815260200191505060405180910390f35b34801561010557600080fd5b5061010e610520565b604051808260ff1660ff16815260200191505060405180910390f35b34801561013657600080fd5b50610158600480360381019080803560ff169060200190929190505050610594565b005b34801561016657600080fd5b5061016f61060f565b604051808260ff1660ff16815260200191505060405180910390f35b34801561019757600080fd5b506101a0610622565b6040518080602001828103825283818151815260200191508051906020019080838360005b838110156101e05780820151818401526020810190506101c5565b50505050905090810190601f16801561020d5780820380516001836020036101000a031916815260200191505b509250505060405180910390f35b34801561022757600080fd5b5061023061065b565b604051808273ffffffffffffffffffffffffffffffffffffffff1673ffffffffffffffffffffffffffffffffffffffff16815260200191505060405180910390f35b61029e600480360381019080803590602001908201803590602001919091929391929390505050610680565b6040518082815260200191505060405180910390f35b3480156102c057600080fd5b506102ed600480360381019080803590602001908201803590602001919091929391929390505050610753565b6040518080602001828103825283818151815260200191508051906020019080838360005b8381101561032d578082015181840152602081019050610312565b50505050905090810190601f16801561035a5780820380516001836020036101000a031916815260200191505b509250505060405180910390f35b34801561037457600080fd5b506103cf600480360381019080803590602001908201803590602001908080601f0160208091040260200160405190810160405280939291908181526020018383808284378201915050505050509192919290505050610937565b604051808260ff1660ff16815260200191505060405180910390f35b3480156103f757600080fd5b5061040061094f565b6040518082815260200191505060405180910390f35b600080600033915060028081111561042a57fe5b60ff166104698387878080601f016020809104026020016040519081016040528093929190818152602001838380828437820191505050505050610954565b60ff1614151561047c5760009250610518565b6001600360009054906101000a900460ff160160ff16905060206040519081016040528082815250600260008473ffffffffffffffffffffffffffffffffffffffff1673ffffffffffffffffffffffffffffffffffffffff168152602001908152602001600020868660405180838380828437820191505092505050908152602001604051809103902060008201518160000155905050600192505b505092915050565b6000336000809054906101000a900473ffffffffffffffffffffffffffffffffffffffff1673ffffffffffffffffffffffffffffffffffffffff168173ffffffffffffffffffffffffffffffffffffffff1614151561057e57600080fd5b600360009054906101000a900460ff1691505090565b336000809054906101000a900473ffffffffffffffffffffffffffffffffffffffff1673ffffffffffffffffffffffffffffffffffffffff168173ffffffffffffffffffffffffffffffffffffffff161415156105f057600080fd5b81600360006101000a81548160ff021916908360ff1602179055505050565b600360009054906101000a900460ff1681565b6040805190810160405280601681526020017f596f7520617265206e6f7420737562736372696265640000000000000000000081525081565b6000809054906101000a900473ffffffffffffffffffffffffffffffffffffffff1681565b600080600080600033935034925060038381151561069a57fe5b04915060018210156106af5760009450610749565b81600360009054906101000a900460ff1660ff1601905060206040519081016040528082815250600260008673ffffffffffffffffffffffffffffffffffffffff1673ffffffffffffffffffffffffffffffffffffffff1681526020019081526020016000208888604051808383808284378201915050925050509081526020016040518091039020600082015181600001559050508194505b5050505092915050565b6060600060603391506000600281111561076957fe5b60ff166107a88387878080601f016020809104026020016040519081016040528093929190818152602001838380828437820191505050505050610954565b60ff161415156107ef576040805190810160405280601681526020017f596f7520617265206e6f74207375627363726962656400000000000000000000815250925061092f565b6001858560405180838380828437820191505092505050908152602001604051809103902060009054906101000a900473ffffffffffffffffffffffffffffffffffffffff1673ffffffffffffffffffffffffffffffffffffffff166398b801056040518163ffffffff167c0100000000000000000000000000000000000000000000000000000000028152600401600060405180830381600087803b15801561089857600080fd5b505af11580156108ac573d6000803e3d6000fd5b505050506040513d6000823e3d601f19601f8201168201806040525060208110156108d657600080fd5b8101908080516401000000008111156108ee57600080fd5b8281019050602081018481111561090457600080fd5b815185600182028301116401000000008211171561092157600080fd5b505092919050505090508092505b505092915050565b6000803390506109478184610954565b915050919050565b600381565b600080600260008573ffffffffffffffffffffffffffffffffffffffff1673ffffffffffffffffffffffffffffffffffffffff168152602001908152602001600020836040518082805190602001908083835b6020831015156109cc57805182526020820191506020810190506020830392506109a7565b6001836020036101000a03801982511681845116808217855250505050505090500191505090815260200160405180910390206000015490506000811415610a2157600280811115610a1a57fe5b9150610a60565b80600360009054906101000a900460ff1660ff16101515610a505760016002811115610a4957fe5b9150610a60565b60006002811115610a5d57fe5b91505b50929150505600a165627a7a72305820ccc1191890be21ff5fe1859bd86306b4fd9e9d9ec03eb72cb9fbbff06793a9480029",
  "source": "pragma solidity 0.4.24;\n\nimport \"./Service.sol\";\n\n/**\n * A contract that takes a service in its constructor and wraps it in functionality\n * that enables users to subscribe to a free trial for a day or to enter a paid subscription\n * for more than one day.  A film rental service is used in the unit tests.\n */\ncontract ServiceProvider {\n\n    //A bit cheap but it makes it easier to test\n    uint constant public feePerDayInWei = 3 wei;\n\n    address public owner;\n\n    enum SubscriptionStatus {ACTIVE,EXPIRED,NOT_SUBSCRIBED}\n\n    //Service names to services\n    mapping(string => Service) private services;\n\n    struct UserProfile {\n        uint expirationDay;\n    }\n\n    //This map is keyed by username with the values being other maps,\n    //keyed by service name, that point to the profile for the user's subscription\n    //to that service.\n    mapping(address => mapping(string=>UserProfile)) private userProfiles;\n\n    uint8 public currentDay;\n\n    //Simple error message\n    string constant public notsubscribed = \"You are not subscribed\";\n\n    constructor(address[] memory _services) public  {\n        owner = msg.sender;\n        currentDay = 1;\n        //for(uint i = 0 ; i < _services.length; i++)\n            Service service = Service(_services[0]);\n            services[service.getServiceName()] = service;\n    }\n\n    /**\n     * Returns whether the user's subscription is active (0), expired (1) or\n     * non-existent (2)\n     */\n    function getSubscriptionStatus(string serviceName) view public returns(uint8) {\n        address user = msg.sender;\n        return doGetSubscriptionStatus(user, serviceName);\n    }\n\n    function doGetSubscriptionStatus(address user, string serviceName) view private returns (uint8) {\n        uint expirationDay = userProfiles[user][serviceName].expirationDay;\n        if(expirationDay == 0){\n            return uint8(SubscriptionStatus.NOT_SUBSCRIBED);\n        }\n        else if(currentDay >= expirationDay) {\n            return uint8(SubscriptionStatus.EXPIRED);\n        }\n        else {\n            return uint8(SubscriptionStatus.ACTIVE);\n        }\n    }\n\n    /**\n     * Subscribes the given address to the free trial`, which means that they will be able to access\n     * the service for a day.\n     */\n    function subscribeToTrial(string serviceName) external returns (bool) {\n        address user = msg.sender;\n        if(doGetSubscriptionStatus(user, serviceName) != uint8(SubscriptionStatus.NOT_SUBSCRIBED)){\n           return false;\n        }\n\n        uint expirationDay = currentDay + 1;\n        userProfiles[user][serviceName] = UserProfile(expirationDay);\n        return true;\n    }\n\n    /**\n     * Enables the caller to pay for a subscription for a number of days based on the\n     * value provided.\n     */\n    function subscribeFor(string serviceName) external payable returns (uint) {\n\n        address user = msg.sender;\n        uint feeProvided = msg.value;\n        uint numDaysPaidFor = feeProvided / feePerDayInWei;\n\n        if(numDaysPaidFor < 1) {\n            return 0;\n        }\n\n        uint newExpirationDay = currentDay + numDaysPaidFor;\n        userProfiles[user][serviceName] = UserProfile(uint(newExpirationDay));\n        return numDaysPaidFor;\n    }\n\n    /**\n     * Fallback function for receiving ether\n     */\n    function () public payable {\n    }\n\n    /**\n     * Returns a URL from the service that the user is subscribed to\n     */\n    function callService(string serviceName) view external returns(string) {\n        address user = msg.sender;\n        if(doGetSubscriptionStatus(user, serviceName) != uint8(SubscriptionStatus.ACTIVE)) {\n            return notsubscribed;\n        }\n        string memory result = services[serviceName].getFromService();\n        return result;\n    }\n\n    /**\n     * Used to tell the contract that the day has changed.  This affects user's subscriptions.\n     * This can only be called by the owner of the contract and would need to be\n     * called externally by the owner's systems at the end of each calendar day because,\n     * at the time of writing, there is no reliable way to get the system time from\n     * within a contract unless you want the block creation time.\n     */\n    function setDay(uint8 _day) external isOwner(msg.sender) {\n        currentDay = _day;\n    }\n\n    function getDay() view external isOwner(msg.sender) returns (uint8) {\n        return currentDay;\n    }\n\n    modifier isOwner(address a) {\n        require(a == owner);\n        _;\n    }\n\n}\n",
  "sourcePath": "/home/josh/Ethereum-Service-Provider/contracts/ServiceProvider.sol",
  "compiler": {
    "name": "solc",
    "version": "0.4.24+commit.e67f0147.Emscripten.clang"
  },
  "schemaVersion": "2.0.1",
  "updatedAt": "2018-09-24T08:22:12.109Z"
}