{
  "contractName": "ServiceProvider",
  "abi": [
    {
      "constant": true,
      "inputs": [],
      "name": "debug",
      "outputs": [
        {
          "name": "",
          "type": "string"
        }
      ],
      "payable": false,
      "stateMutability": "view",
      "type": "function"
    },
    {
      "constant": true,
      "inputs": [],
      "name": "currentDay",
      "outputs": [
        {
          "name": "",
          "type": "uint8"
        }
      ],
      "payable": false,
      "stateMutability": "view",
      "type": "function"
    },
    {
      "constant": true,
      "inputs": [],
      "name": "notsubscribed",
      "outputs": [
        {
          "name": "",
          "type": "string"
        }
      ],
      "payable": false,
      "stateMutability": "view",
      "type": "function"
    },
    {
      "constant": true,
      "inputs": [],
      "name": "owner",
      "outputs": [
        {
          "name": "",
          "type": "address"
        }
      ],
      "payable": false,
      "stateMutability": "view",
      "type": "function"
    },
    {
      "inputs": [
        {
          "name": "_service",
          "type": "address"
        }
      ],
      "payable": false,
      "stateMutability": "nonpayable",
      "type": "constructor"
    },
    {
      "payable": true,
      "stateMutability": "payable",
      "type": "fallback"
    },
    {
      "constant": true,
      "inputs": [],
      "name": "getSubscriptionStatus",
      "outputs": [
        {
          "name": "",
          "type": "uint8"
        }
      ],
      "payable": false,
      "stateMutability": "view",
      "type": "function"
    },
    {
      "constant": false,
      "inputs": [],
      "name": "subscribeToTrial",
      "outputs": [
        {
          "name": "",
          "type": "bool"
        }
      ],
      "payable": false,
      "stateMutability": "nonpayable",
      "type": "function"
    },
    {
      "constant": false,
      "inputs": [],
      "name": "subscribeFor",
      "outputs": [],
      "payable": true,
      "stateMutability": "payable",
      "type": "function"
    },
    {
      "constant": true,
      "inputs": [],
      "name": "callService",
      "outputs": [
        {
          "name": "",
          "type": "string"
        }
      ],
      "payable": false,
      "stateMutability": "view",
      "type": "function"
    },
    {
      "constant": false,
      "inputs": [
        {
          "name": "_day",
          "type": "uint8"
        }
      ],
      "name": "setDay",
      "outputs": [],
      "payable": false,
      "stateMutability": "nonpayable",
      "type": "function"
    }
  ],
  "bytecode": "0x608060405234801561001057600080fd5b50604051602080610bc78339810180604052810190808051906020019092919050505033600160006101000a81548173ffffffffffffffffffffffffffffffffffffffff021916908373ffffffffffffffffffffffffffffffffffffffff1602179055506001600460006101000a81548160ff021916908360ff16021790555080600260006101000a81548173ffffffffffffffffffffffffffffffffffffffff021916908373ffffffffffffffffffffffffffffffffffffffff16021790555050610ae6806100e16000396000f300608060405260043610610099576000357c0100000000000000000000000000000000000000000000000000000000900463ffffffff1680632ad4b2e41461009b5780632f00bfcb146100ca578063348902c7146100fa578063476c7ee714610104578063588ee29b146101355780635c9302c9146101c5578063725bcf1b146101f65780638b243202146102865780638da5cb5b14610316575b005b3480156100a757600080fd5b506100b061036d565b604051808215151515815260200191505060405180910390f35b3480156100d657600080fd5b506100f8600480360381019080803560ff169060200190929190505050610435565b005b6101026104b1565b005b34801561011057600080fd5b506101196106a9565b604051808260ff1660ff16815260200191505060405180910390f35b34801561014157600080fd5b5061014a6106be565b6040518080602001828103825283818151815260200191508051906020019080838360005b8381101561018a57808201518184015260208101905061016f565b50505050905090810190601f1680156101b75780820380516001836020036101000a031916815260200191505b509250505060405180910390f35b3480156101d157600080fd5b506101da61075c565b604051808260ff1660ff16815260200191505060405180910390f35b34801561020257600080fd5b5061020b61076f565b6040518080602001828103825283818151815260200191508051906020019080838360005b8381101561024b578082015181840152602081019050610230565b50505050905090810190601f1680156102785780820380516001836020036101000a031916815260200191505b509250505060405180910390f35b34801561029257600080fd5b5061029b6108fa565b6040518080602001828103825283818151815260200191508051906020019080838360005b838110156102db5780820151818401526020810190506102c0565b50505050905090810190601f1680156103085780820380516001836020036101000a031916815260200191505b509250505060405180910390f35b34801561032257600080fd5b5061032b610933565b604051808273ffffffffffffffffffffffffffffffffffffffff1673ffffffffffffffffffffffffffffffffffffffff16815260200191505060405180910390f35b600080600033915060028081111561038157fe5b60ff1661038d83610959565b60ff161415156103a05760009250610430565b6001600460009054906101000a900460ff160190506020604051908101604052808260ff16815250600360008473ffffffffffffffffffffffffffffffffffffffff1673ffffffffffffffffffffffffffffffffffffffff16815260200190815260200160002060008201518160000160006101000a81548160ff021916908360ff160217905550905050600192505b505090565b33600160009054906101000a900473ffffffffffffffffffffffffffffffffffffffff1673ffffffffffffffffffffffffffffffffffffffff168173ffffffffffffffffffffffffffffffffffffffff1614151561049257600080fd5b81600460006101000a81548160ff021916908360ff1602179055505050565b6000806000806000806040805190810160405280600681526020017f63616c6c6564000000000000000000000000000000000000000000000000000081525060009080519060200190610505929190610a15565b5033955034945060018581151561051857fe5b04935060018581151561052757fe5b069250600083111561057b573373ffffffffffffffffffffffffffffffffffffffff166108fc849081150290604051600060405180830381858888f19350505050158015610579573d6000803e3d6000fd5b505b60018410156105d1576040805190810160405280600881526020017f6e756d4461797330000000000000000000000000000000000000000000000000815250600090805190602001906105cf929190610a15565b505b600360008773ffffffffffffffffffffffffffffffffffffffff1673ffffffffffffffffffffffffffffffffffffffff16815260200190815260200160002060000160009054906101000a900460ff169150838260ff160190506020604051908101604052808260ff16815250600360008873ffffffffffffffffffffffffffffffffffffffff1673ffffffffffffffffffffffffffffffffffffffff16815260200190815260200160002060008201518160000160006101000a81548160ff021916908360ff160217905550905050505050505050565b6000803390506106b881610959565b91505090565b60008054600181600116156101000203166002900480601f0160208091040260200160405190810160405280929190818152602001828054600181600116156101000203166002900480156107545780601f1061072957610100808354040283529160200191610754565b820191906000526020600020905b81548152906001019060200180831161073757829003601f168201915b505050505081565b600460009054906101000a900460ff1681565b6060600060603391506000600281111561078557fe5b60ff1661079183610959565b60ff161415156107d8576040805190810160405280601681526020017f596f7520617265206e6f7420737562736372696265640000000000000000000081525092506108f5565b600260009054906101000a900473ffffffffffffffffffffffffffffffffffffffff1673ffffffffffffffffffffffffffffffffffffffff166398b801056040518163ffffffff167c0100000000000000000000000000000000000000000000000000000000028152600401600060405180830381600087803b15801561085e57600080fd5b505af1158015610872573d6000803e3d6000fd5b505050506040513d6000823e3d601f19601f82011682018060405250602081101561089c57600080fd5b8101908080516401000000008111156108b457600080fd5b828101905060208101848111156108ca57600080fd5b81518560018202830111640100000000821117156108e757600080fd5b505092919050505090508092505b505090565b6040805190810160405280601681526020017f596f7520617265206e6f7420737562736372696265640000000000000000000081525081565b600160009054906101000a900473ffffffffffffffffffffffffffffffffffffffff1681565b600080600360008473ffffffffffffffffffffffffffffffffffffffff1673ffffffffffffffffffffffffffffffffffffffff16815260200190815260200160002060000160009054906101000a900460ff16905060008160ff1614156109cd576002808111156109c657fe5b9150610a0f565b8060ff16600460009054906101000a900460ff1660ff161015156109ff57600160028111156109f857fe5b9150610a0f565b60006002811115610a0c57fe5b91505b50919050565b828054600181600116156101000203166002900490600052602060002090601f016020900481019282601f10610a5657805160ff1916838001178555610a84565b82800160010185558215610a84579182015b82811115610a83578251825591602001919060010190610a68565b5b509050610a919190610a95565b5090565b610ab791905b80821115610ab3576000816000905550600101610a9b565b5090565b905600a165627a7a7230582049d095c033e7f3d86e4ff6527ee574bc3b40c1347fdeda4ef44a7eea83daa2380029",
  "source": "pragma solidity 0.4.24;\n\nimport \"./Service.sol\";\n\n/**\n * Example contract that takes a service in its constructor, a film rental service in this example,\n * and wraps it in functionality that enables users to subscribe to a free trial for\n * a day.\n */\ncontract ServiceProvider {\n\n    string public debug;\n\n    address public owner;\n\n    Service private service;\n\n    enum SubscriptionStatus {ACTIVE,EXPIRED,NOT_SUBSCRIBED}\n\n    struct UserProfile {\n        uint8 expirationDay;\n    }\n\n    mapping(address => UserProfile) private userProfiles;\n\n    uint8 public currentDay;\n\n    //Simple error message\n    string constant public notsubscribed = \"You are not subscribed\";\n\n    constructor(address _service) public  {\n        owner = msg.sender;\n        currentDay = 1;\n        service = Service(_service);\n    }\n\n    /**\n     * Returns whether the user's subscription is active (0), expired (1) or\n     * non-existent (2)\n     */\n    function getSubscriptionStatus() view public returns(uint8) {\n        address user = msg.sender;\n        return doGetSubscriptionStatus(user);\n    }\n\n    function doGetSubscriptionStatus(address user) view private returns (uint8) {\n        uint8 expirationDay = userProfiles[user].expirationDay;\n        if(expirationDay == 0){\n            return uint8(SubscriptionStatus.NOT_SUBSCRIBED);\n        }\n        else if(currentDay >= expirationDay) {\n            return uint8(SubscriptionStatus.EXPIRED);\n        }\n        else {\n            return uint8(SubscriptionStatus.ACTIVE);\n        }\n    }\n\n    /**\n     * Subscribes the given user name, which means that they will be able to access\n     * the service for a day.\n     */\n    function subscribeToTrial() external returns (bool) {\n        address user = msg.sender;\n        if(doGetSubscriptionStatus(user) != uint8(SubscriptionStatus.NOT_SUBSCRIBED)){\n           return false;\n        }\n\n        uint8 expirationDay = currentDay + 1;\n        userProfiles[user] = UserProfile(expirationDay);\n        return true;\n    }\n\n    /**\n     *\n     */\n    function subscribeFor() external payable {\n    debug = \"called\";\n\n        address user = msg.sender;\n        uint feeProvided = msg.value;\n        uint numDaysPaidFor = feeProvided / 1;\n        uint change = feeProvided % 1;\n\n        if(change > 0) {\n            msg.sender.transfer(change);\n        }\n\n        if(numDaysPaidFor < 1) {\n            debug = \"numDays0\";\n        }\n\n        uint8 existingExpirationDay = userProfiles[user].expirationDay;\n        uint newExpirationDay = existingExpirationDay + numDaysPaidFor;\n        userProfiles[user] = UserProfile(uint8(newExpirationDay));\n    }\n\n    function () public payable {\n    }\n\n    /**\n     * Returns a URL from the service (a film in this case) that the user is subscribed to\n     */\n    function callService() view external returns(string) {\n        address user = msg.sender;\n        if(doGetSubscriptionStatus(user) != uint8(SubscriptionStatus.ACTIVE)) {\n            return notsubscribed;\n        }\n        string memory result = service.getFromService();\n        return result;\n    }\n\n    /**\n     * Used to tell the contract that the day has changed.  This affects user's subscriptions.\n     * This can only be called by the owner of the contract and would need to be\n     * called externally by the owner's systems at the end of each calendar day because,\n     * at the time of writing, there is no reliable way to get the system time from\n     * within a contract unless you want the block creation time.\n     */\n    function setDay(uint8 _day) external isOwner(msg.sender) {\n        currentDay = _day;\n    }\n\n    modifier isOwner(address a) {\n        require(a == owner);\n        _;\n    }\n\n}\n",
  "sourcePath": "/home/josh/serviceProvider/contracts/ServiceProvider.sol",
  "compiler": {
    "name": "solc",
    "version": "0.4.24+commit.e67f0147.Emscripten.clang"
  },
  "schemaVersion": "2.0.1",
  "updatedAt": "2018-08-31T09:38:05.609Z"
}